10400000         1000055542545270000000000000000000034495X36209300000000MARQUES SOLUTIONS             CAIXA ECONOMICA FEDERAL                 12910201905121512345605000000                    REMESSA-PRODUCAO                                 
10400011R0100030 10000055542545271234560000000000000034495X12345600000000 MARQUES SOLUTIONS             AGRADECEMOS A SUA PREFERENCIA           VOLTE SEMPRE                           000000012810201930102019                                 
1040001300001P 0134495X12345600000000000141111111111111111122000000000259    3112201900000000000150000000004N2910201903112019000000000000000002112019000000000000000000000000000000000000000000000000000000000000000000025910102120090000000000 
1040001300001Q 011000005554254527ELTON MARQUES DOS SANTOS                RUA NEIDE GAMA, Nº 116, ENGENHO VELHO DAENGENHO VELHO D40220085SALVADOR       BA0000005554254527VLADEMIR VALENTIN NASCIMENTO DOS SANTOS    12345678912345678912        